{
  "contractName": "Account",
  "abi": [
    {
      "inputs": [
        {
          "internalType": "uint256",
          "name": "accountId",
          "type": "uint256"
        }
      ],
      "stateMutability": "payable",
      "type": "constructor"
    },
    {
      "inputs": [],
      "name": "accId",
      "outputs": [
        {
          "internalType": "uint256",
          "name": "",
          "type": "uint256"
        }
      ],
      "stateMutability": "view",
      "type": "function"
    }
  ],
  "bytecode": "0x608060405260405161015b38038061015b8339818101604052810190610025919061006d565b806000819055505061009a565b600080fd5b6000819050919050565b61004a81610037565b811461005557600080fd5b50565b60008151905061006781610041565b92915050565b60006020828403121561008357610082610032565b5b600061009184828501610058565b91505092915050565b60b3806100a86000396000f3fe6080604052348015600f57600080fd5b506004361060285760003560e01c806396964a2214602d575b600080fd5b60336047565b604051603e91906064565b60405180910390f35b60005481565b6000819050919050565b605e81604d565b82525050565b6000602082019050607760008301846057565b9291505056fea2646970667358221220b3086eea12eb3fcb869c0323c2d5194f6e7d7ede9f8e8803a9dc385aff421c8d64736f6c63430008130033",
  "immutableReferences": {},
  "source": "// SPDX-License-Identifier: MIT\npragma solidity >=0.4.22 <0.9.0;\n\ncontract Account {\n    uint256 public accId;\n\n    //construction?\n    constructor(uint256 accountId) payable {\n        accId = accountId;\n    }\n}\n\ncontract Initialize {\n    constructor() payable{}\n\n    Account public account = new Account(10);\n\n    event accountEvent(uint256 accountId);\n\n    function newAccount(uint256 accountId) public {\n        account = new Account(accountId);\n        emit accountEvent(accountId);\n    }\n\n    function newAccountWithEther(uint256 accountId, uint256 amount)\n        public\n        payable\n    {\n        account = new Account{value: amount}(accountId);\n        emit accountEvent(accountId);\n    }\n\n    function getBalance(address addr) public view returns (uint256) {\n        return addr.balance;\n    }\n\n    function getAccountId() public view returns(uint256){\n        return account.accId();\n    }\n\n    function getThisAddr() public view returns(address){\n        return address(this);\n    }\n}\n",
  "sourcePath": "/Users/chenpeng/working/own/web3/simple-sol/contracts/Account.sol",
  "compiler": {
    "name": "solc",
    "version": "0.8.19+commit.7dd6d404.Emscripten.clang"
  },
  "schemaVersion": "3.4.13",
  "updatedAt": "2023-04-10T13:29:39.035Z",
  "devdoc": {
    "kind": "dev",
    "methods": {},
    "version": 1
  },
  "userdoc": {
    "kind": "user",
    "methods": {},
    "version": 1
  }
}