{
  "contractName": "Account",
  "abi": [
    {
      "inputs": [
        {
          "internalType": "uint256",
          "name": "accountId",
          "type": "uint256"
        }
      ],
      "stateMutability": "payable",
      "type": "constructor",
      "payable": true
    },
    {
      "anonymous": false,
      "inputs": [
        {
          "indexed": false,
          "internalType": "address",
          "name": "accountAddr",
          "type": "address"
        },
        {
          "indexed": false,
          "internalType": "uint256",
          "name": "accountId",
          "type": "uint256"
        },
        {
          "indexed": false,
          "internalType": "uint256",
          "name": "accountBalance",
          "type": "uint256"
        }
      ],
      "name": "accountInfo",
      "type": "event"
    },
    {
      "anonymous": false,
      "inputs": [
        {
          "indexed": false,
          "internalType": "address",
          "name": "msgSender",
          "type": "address"
        },
        {
          "indexed": false,
          "internalType": "uint256",
          "name": "msgValue",
          "type": "uint256"
        },
        {
          "indexed": false,
          "internalType": "uint256",
          "name": "msgBalance",
          "type": "uint256"
        },
        {
          "indexed": false,
          "internalType": "uint256",
          "name": "num",
          "type": "uint256"
        }
      ],
      "name": "msgInfoEvent",
      "type": "event"
    },
    {
      "inputs": [],
      "name": "accId",
      "outputs": [
        {
          "internalType": "uint256",
          "name": "",
          "type": "uint256"
        }
      ],
      "stateMutability": "view",
      "type": "function",
      "constant": true
    },
    {
      "inputs": [
        {
          "internalType": "uint256",
          "name": "num",
          "type": "uint256"
        }
      ],
      "name": "getInfo",
      "outputs": [
        {
          "internalType": "uint256",
          "name": "",
          "type": "uint256"
        }
      ],
      "stateMutability": "payable",
      "type": "function",
      "payable": true
    }
  ],
  "bytecode": "0x60806040526040516103583803806103588339818101604052810190610025919061006d565b806000819055505061009a565b600080fd5b6000819050919050565b61004a81610037565b811461005557600080fd5b50565b60008151905061006781610041565b92915050565b60006020828403121561008357610082610032565b5b600061009184828501610058565b91505092915050565b6102af806100a96000396000f3fe6080604052600436106100295760003560e01c80631a3cd59a1461002e57806396964a221461005e575b600080fd5b61004860048036038101906100439190610165565b610089565b60405161005591906101a1565b60405180910390f35b34801561006a57600080fd5b50610073610124565b60405161008091906101a1565b60405180910390f35b60007f9e617bb1a58617671b41a21c5cedc9b7f3ff5955ffe7c0fa1cf42af1d216223133343373ffffffffffffffffffffffffffffffffffffffff1631856040516100d794939291906101fd565b60405180910390a17f3b04d203e2946cee6b0392845d47ee10e12bc04fd4bfe97e5f5725d6ee0f49b8306000544760405161011493929190610242565b60405180910390a1819050919050565b60005481565b600080fd5b6000819050919050565b6101428161012f565b811461014d57600080fd5b50565b60008135905061015f81610139565b92915050565b60006020828403121561017b5761017a61012a565b5b600061018984828501610150565b91505092915050565b61019b8161012f565b82525050565b60006020820190506101b66000830184610192565b92915050565b600073ffffffffffffffffffffffffffffffffffffffff82169050919050565b60006101e7826101bc565b9050919050565b6101f7816101dc565b82525050565b600060808201905061021260008301876101ee565b61021f6020830186610192565b61022c6040830185610192565b6102396060830184610192565b95945050505050565b600060608201905061025760008301866101ee565b6102646020830185610192565b6102716040830184610192565b94935050505056fea26469706673582212200eeb742a688f57b1e235410c3bff0ce948d3d1e44eec74be4bac8c7400ba1d4b64736f6c63430008130033",
  "immutableReferences": {},
  "source": "// SPDX-License-Identifier: MIT\npragma solidity >=0.4.22 <0.9.0;\n\ncontract Account {\n    uint256 public accId;\n    event msgInfoEvent(\n        address msgSender,\n        uint256 msgValue,\n        uint256 msgBalance,\n        uint256 num\n    );\n    event accountInfo(\n        address accountAddr,\n        uint256 accountId,\n        uint256 accountBalance\n    );\n\n    //construction?\n    constructor(uint256 accountId) payable {\n        accId = accountId;\n    }\n\n    function getInfo(uint256 num) public payable returns(uint256){\n        emit msgInfoEvent(address(msg.sender), msg.value, msg.sender.balance, num);\n        emit accountInfo(address(this), accId, address(this).balance);\n        return num;\n    }\n}\n\ncontract Initialize {\n    // \n    constructor() payable {}\n\n    // \n    fallback() external payable {}\n\n    // \n    receive() external payable {}\n\n    Account public account = new Account(10);\n\n    // \n    event accountEvent(uint256 accountId);\n\n    function newAccount(uint256 accountId) public {\n        account = new Account(accountId);\n        emit accountEvent(accountId);\n    }\n\n    function newAccountWithEther(uint256 accountId, uint256 amount)\n        public\n        payable\n    {\n        account = new Account{value: amount}(accountId);\n        emit accountEvent(accountId);\n    }\n\n    function getBalance(address addr) public view returns (uint256) {\n        return addr.balance;\n    }\n\n    function getAccountId() public view returns (uint256) {\n        return account.accId();\n    }\n\n    function getThisAddr() public view returns (address) {\n        return address(this);\n    }\n\n    function callAccountInfo(address _contractAddress) public payable {\n        (bool success1, bytes memory result1) = address(_contractAddress).call(\n            abi.encodeWithSignature(\"getInfo(uint256)\", 2)\n        );\n        require(success1, \"call fail\");\n        emit accountEvent(abi.decode(result1, (uint256)));\n\n        (bool success2, bytes memory result2) = address(_contractAddress).delegatecall(\n            abi.encodeWithSignature(\"getInfo(uint256)\", 3)\n        );\n        require(success2, \"delegatecall fail\");\n        emit accountEvent(abi.decode(result2, (uint256)));\n    }\n}\n",
  "sourcePath": "/Users/chenpeng/working/own/web3/simple-sol/contracts/Account.sol",
  "compiler": {
    "name": "solc",
    "version": "0.8.19+commit.7dd6d404.Emscripten.clang"
  },
  "schemaVersion": "3.4.13",
  "updatedAt": "2023-04-11T04:21:47.382Z",
  "networkType": "ethereum",
  "devdoc": {
    "kind": "dev",
    "methods": {},
    "version": 1
  },
  "userdoc": {
    "kind": "user",
    "methods": {},
    "version": 1
  }
}