{
  "contractName": "Initialize",
  "abi": [
    {
      "inputs": [],
      "stateMutability": "payable",
      "type": "constructor",
      "payable": true
    },
    {
      "anonymous": false,
      "inputs": [
        {
          "indexed": false,
          "internalType": "uint256",
          "name": "accountId",
          "type": "uint256"
        }
      ],
      "name": "accountEvent",
      "type": "event"
    },
    {
      "stateMutability": "payable",
      "type": "fallback",
      "payable": true
    },
    {
      "inputs": [],
      "name": "account",
      "outputs": [
        {
          "internalType": "contract Account",
          "name": "",
          "type": "address"
        }
      ],
      "stateMutability": "view",
      "type": "function",
      "constant": true
    },
    {
      "stateMutability": "payable",
      "type": "receive",
      "payable": true
    },
    {
      "inputs": [
        {
          "internalType": "uint256",
          "name": "accountId",
          "type": "uint256"
        }
      ],
      "name": "newAccount",
      "outputs": [],
      "stateMutability": "nonpayable",
      "type": "function"
    },
    {
      "inputs": [
        {
          "internalType": "uint256",
          "name": "accountId",
          "type": "uint256"
        },
        {
          "internalType": "uint256",
          "name": "amount",
          "type": "uint256"
        }
      ],
      "name": "newAccountWithEther",
      "outputs": [],
      "stateMutability": "payable",
      "type": "function",
      "payable": true
    },
    {
      "inputs": [
        {
          "internalType": "address",
          "name": "addr",
          "type": "address"
        }
      ],
      "name": "getBalance",
      "outputs": [
        {
          "internalType": "uint256",
          "name": "",
          "type": "uint256"
        }
      ],
      "stateMutability": "view",
      "type": "function",
      "constant": true
    },
    {
      "inputs": [],
      "name": "getAccountId",
      "outputs": [
        {
          "internalType": "uint256",
          "name": "",
          "type": "uint256"
        }
      ],
      "stateMutability": "view",
      "type": "function",
      "constant": true
    },
    {
      "inputs": [],
      "name": "getThisAddr",
      "outputs": [
        {
          "internalType": "address",
          "name": "",
          "type": "address"
        }
      ],
      "stateMutability": "view",
      "type": "function",
      "constant": true
    },
    {
      "inputs": [
        {
          "internalType": "address",
          "name": "_contractAddress",
          "type": "address"
        }
      ],
      "name": "callAccountInfo",
      "outputs": [],
      "stateMutability": "payable",
      "type": "function",
      "payable": true
    }
  ],
  "bytecode": "0x6080604052600a6040516100129061007d565b61001c91906100d9565b604051809103906000f080158015610038573d6000803e3d6000fd5b506000806101000a81548173ffffffffffffffffffffffffffffffffffffffff021916908373ffffffffffffffffffffffffffffffffffffffff1602179055506100f4565b61035880610ffb83390190565b6000819050919050565b6000819050919050565b6000819050919050565b60006100c36100be6100b98461008a565b61009e565b610094565b9050919050565b6100d3816100a8565b82525050565b60006020820190506100ee60008301846100ca565b92915050565b610ef8806101036000396000f3fe6080604052600436106100745760003560e01c8063aca855301161004e578063aca85530146100ef578063c39911cf1461010b578063f003abfe14610136578063f8b2cb4f1461015f5761007b565b80635dab24201461007d5780636d1dca0b146100a8578063a699a9b6146100d35761007b565b3661007b57005b005b34801561008957600080fd5b5061009261019c565b60405161009f919061077c565b60405180910390f35b3480156100b457600080fd5b506100bd6101c0565b6040516100ca91906107b0565b60405180910390f35b6100ed60048036038101906100e891906107fc565b610257565b005b6101096004803603810190610104919061087a565b610307565b005b34801561011757600080fd5b5061012061061a565b60405161012d91906108b6565b60405180910390f35b34801561014257600080fd5b5061015d600480360381019061015891906108d1565b610622565b005b34801561016b57600080fd5b506101866004803603810190610181919061087a565b6106cf565b60405161019391906107b0565b60405180910390f35b60008054906101000a900473ffffffffffffffffffffffffffffffffffffffff1681565b60008060009054906101000a900473ffffffffffffffffffffffffffffffffffffffff1673ffffffffffffffffffffffffffffffffffffffff166396964a226040518163ffffffff1660e01b8152600401602060405180830381865afa15801561022e573d6000803e3d6000fd5b505050506040513d601f19601f820116820180604052508101906102529190610913565b905090565b8082604051610265906106f0565b61026f91906107b0565b6040518091039082f090508015801561028c573d6000803e3d6000fd5b506000806101000a81548173ffffffffffffffffffffffffffffffffffffffff021916908373ffffffffffffffffffffffffffffffffffffffff1602179055507ff985ff11c4bb6f31dbf12ed9f397d5625b0b28aba0e5fde753950bec73b189c4826040516102fb91906107b0565b60405180910390a15050565b6000808273ffffffffffffffffffffffffffffffffffffffff1660026040516024016103339190610988565b6040516020818303038152906040527f1a3cd59a000000000000000000000000000000000000000000000000000000007bffffffffffffffffffffffffffffffffffffffffffffffffffffffff19166020820180517bffffffffffffffffffffffffffffffffffffffffffffffffffffffff83818316178352505050506040516103bd9190610a14565b6000604051808303816000865af19150503d80600081146103fa576040519150601f19603f3d011682016040523d82523d6000602084013e6103ff565b606091505b509150915081610444576040517f08c379a000000000000000000000000000000000000000000000000000000000815260040161043b90610a88565b60405180910390fd5b7ff985ff11c4bb6f31dbf12ed9f397d5625b0b28aba0e5fde753950bec73b189c4818060200190518101906104799190610913565b60405161048691906107b0565b60405180910390a16000808473ffffffffffffffffffffffffffffffffffffffff1660036040516024016104ba9190610ae3565b6040516020818303038152906040527f1a3cd59a000000000000000000000000000000000000000000000000000000007bffffffffffffffffffffffffffffffffffffffffffffffffffffffff19166020820180517bffffffffffffffffffffffffffffffffffffffffffffffffffffffff83818316178352505050506040516105449190610a14565b600060405180830381855af49150503d806000811461057f576040519150601f19603f3d011682016040523d82523d6000602084013e610584565b606091505b5091509150816105c9576040517f08c379a00000000000000000000000000000000000000000000000000000000081526004016105c090610b4a565b60405180910390fd5b7ff985ff11c4bb6f31dbf12ed9f397d5625b0b28aba0e5fde753950bec73b189c4818060200190518101906105fe9190610913565b60405161060b91906107b0565b60405180910390a15050505050565b600030905090565b8060405161062f906106f0565b61063991906107b0565b604051809103906000f080158015610655573d6000803e3d6000fd5b506000806101000a81548173ffffffffffffffffffffffffffffffffffffffff021916908373ffffffffffffffffffffffffffffffffffffffff1602179055507ff985ff11c4bb6f31dbf12ed9f397d5625b0b28aba0e5fde753950bec73b189c4816040516106c491906107b0565b60405180910390a150565b60008173ffffffffffffffffffffffffffffffffffffffff16319050919050565b61035880610b6b83390190565b600073ffffffffffffffffffffffffffffffffffffffff82169050919050565b6000819050919050565b600061074261073d610738846106fd565b61071d565b6106fd565b9050919050565b600061075482610727565b9050919050565b600061076682610749565b9050919050565b6107768161075b565b82525050565b6000602082019050610791600083018461076d565b92915050565b6000819050919050565b6107aa81610797565b82525050565b60006020820190506107c560008301846107a1565b92915050565b600080fd5b6107d981610797565b81146107e457600080fd5b50565b6000813590506107f6816107d0565b92915050565b60008060408385031215610813576108126107cb565b5b6000610821858286016107e7565b9250506020610832858286016107e7565b9150509250929050565b6000610847826106fd565b9050919050565b6108578161083c565b811461086257600080fd5b50565b6000813590506108748161084e565b92915050565b6000602082840312156108905761088f6107cb565b5b600061089e84828501610865565b91505092915050565b6108b08161083c565b82525050565b60006020820190506108cb60008301846108a7565b92915050565b6000602082840312156108e7576108e66107cb565b5b60006108f5848285016107e7565b91505092915050565b60008151905061090d816107d0565b92915050565b600060208284031215610929576109286107cb565b5b6000610937848285016108fe565b91505092915050565b6000819050919050565b600060ff82169050919050565b600061097261096d61096884610940565b61071d565b61094a565b9050919050565b61098281610957565b82525050565b600060208201905061099d6000830184610979565b92915050565b600081519050919050565b600081905092915050565b60005b838110156109d75780820151818401526020810190506109bc565b60008484015250505050565b60006109ee826109a3565b6109f881856109ae565b9350610a088185602086016109b9565b80840191505092915050565b6000610a2082846109e3565b915081905092915050565b600082825260208201905092915050565b7f63616c6c206661696c0000000000000000000000000000000000000000000000600082015250565b6000610a72600983610a2b565b9150610a7d82610a3c565b602082019050919050565b60006020820190508181036000830152610aa181610a65565b9050919050565b6000819050919050565b6000610acd610ac8610ac384610aa8565b61071d565b61094a565b9050919050565b610add81610ab2565b82525050565b6000602082019050610af86000830184610ad4565b92915050565b7f64656c656761746563616c6c206661696c000000000000000000000000000000600082015250565b6000610b34601183610a2b565b9150610b3f82610afe565b602082019050919050565b60006020820190508181036000830152610b6381610b27565b905091905056fe60806040526040516103583803806103588339818101604052810190610025919061006d565b806000819055505061009a565b600080fd5b6000819050919050565b61004a81610037565b811461005557600080fd5b50565b60008151905061006781610041565b92915050565b60006020828403121561008357610082610032565b5b600061009184828501610058565b91505092915050565b6102af806100a96000396000f3fe6080604052600436106100295760003560e01c80631a3cd59a1461002e57806396964a221461005e575b600080fd5b61004860048036038101906100439190610165565b610089565b60405161005591906101a1565b60405180910390f35b34801561006a57600080fd5b50610073610124565b60405161008091906101a1565b60405180910390f35b60007f9e617bb1a58617671b41a21c5cedc9b7f3ff5955ffe7c0fa1cf42af1d216223133343373ffffffffffffffffffffffffffffffffffffffff1631856040516100d794939291906101fd565b60405180910390a17f3b04d203e2946cee6b0392845d47ee10e12bc04fd4bfe97e5f5725d6ee0f49b8306000544760405161011493929190610242565b60405180910390a1819050919050565b60005481565b600080fd5b6000819050919050565b6101428161012f565b811461014d57600080fd5b50565b60008135905061015f81610139565b92915050565b60006020828403121561017b5761017a61012a565b5b600061018984828501610150565b91505092915050565b61019b8161012f565b82525050565b60006020820190506101b66000830184610192565b92915050565b600073ffffffffffffffffffffffffffffffffffffffff82169050919050565b60006101e7826101bc565b9050919050565b6101f7816101dc565b82525050565b600060808201905061021260008301876101ee565b61021f6020830186610192565b61022c6040830185610192565b6102396060830184610192565b95945050505050565b600060608201905061025760008301866101ee565b6102646020830185610192565b6102716040830184610192565b94935050505056fea26469706673582212200eeb742a688f57b1e235410c3bff0ce948d3d1e44eec74be4bac8c7400ba1d4b64736f6c63430008130033a2646970667358221220bf234ed7bdb2d816b018df4f1cdd0b3ddd6cac0841c423f4ada3a062c0de8cbc64736f6c6343000813003360806040526040516103583803806103588339818101604052810190610025919061006d565b806000819055505061009a565b600080fd5b6000819050919050565b61004a81610037565b811461005557600080fd5b50565b60008151905061006781610041565b92915050565b60006020828403121561008357610082610032565b5b600061009184828501610058565b91505092915050565b6102af806100a96000396000f3fe6080604052600436106100295760003560e01c80631a3cd59a1461002e57806396964a221461005e575b600080fd5b61004860048036038101906100439190610165565b610089565b60405161005591906101a1565b60405180910390f35b34801561006a57600080fd5b50610073610124565b60405161008091906101a1565b60405180910390f35b60007f9e617bb1a58617671b41a21c5cedc9b7f3ff5955ffe7c0fa1cf42af1d216223133343373ffffffffffffffffffffffffffffffffffffffff1631856040516100d794939291906101fd565b60405180910390a17f3b04d203e2946cee6b0392845d47ee10e12bc04fd4bfe97e5f5725d6ee0f49b8306000544760405161011493929190610242565b60405180910390a1819050919050565b60005481565b600080fd5b6000819050919050565b6101428161012f565b811461014d57600080fd5b50565b60008135905061015f81610139565b92915050565b60006020828403121561017b5761017a61012a565b5b600061018984828501610150565b91505092915050565b61019b8161012f565b82525050565b60006020820190506101b66000830184610192565b92915050565b600073ffffffffffffffffffffffffffffffffffffffff82169050919050565b60006101e7826101bc565b9050919050565b6101f7816101dc565b82525050565b600060808201905061021260008301876101ee565b61021f6020830186610192565b61022c6040830185610192565b6102396060830184610192565b95945050505050565b600060608201905061025760008301866101ee565b6102646020830185610192565b6102716040830184610192565b94935050505056fea26469706673582212200eeb742a688f57b1e235410c3bff0ce948d3d1e44eec74be4bac8c7400ba1d4b64736f6c63430008130033",
  "immutableReferences": {},
  "source": "// SPDX-License-Identifier: MIT\npragma solidity >=0.4.22 <0.9.0;\n\ncontract Account {\n    uint256 public accId;\n    event msgInfoEvent(\n        address msgSender,\n        uint256 msgValue,\n        uint256 msgBalance,\n        uint256 num\n    );\n    event accountInfo(\n        address accountAddr,\n        uint256 accountId,\n        uint256 accountBalance\n    );\n\n    //construction?\n    constructor(uint256 accountId) payable {\n        accId = accountId;\n    }\n\n    function getInfo(uint256 num) public payable returns(uint256){\n        emit msgInfoEvent(address(msg.sender), msg.value, msg.sender.balance, num);\n        emit accountInfo(address(this), accId, address(this).balance);\n        return num;\n    }\n}\n\ncontract Initialize {\n    // \n    constructor() payable {}\n\n    // \n    fallback() external payable {}\n\n    // \n    receive() external payable {}\n\n    Account public account = new Account(10);\n\n    // \n    event accountEvent(uint256 accountId);\n\n    function newAccount(uint256 accountId) public {\n        account = new Account(accountId);\n        emit accountEvent(accountId);\n    }\n\n    function newAccountWithEther(uint256 accountId, uint256 amount)\n        public\n        payable\n    {\n        account = new Account{value: amount}(accountId);\n        emit accountEvent(accountId);\n    }\n\n    function getBalance(address addr) public view returns (uint256) {\n        return addr.balance;\n    }\n\n    function getAccountId() public view returns (uint256) {\n        return account.accId();\n    }\n\n    function getThisAddr() public view returns (address) {\n        return address(this);\n    }\n\n    function callAccountInfo(address _contractAddress) public payable {\n        (bool success1, bytes memory result1) = address(_contractAddress).call(\n            abi.encodeWithSignature(\"getInfo(uint256)\", 2)\n        );\n        require(success1, \"call fail\");\n        emit accountEvent(abi.decode(result1, (uint256)));\n\n        (bool success2, bytes memory result2) = address(_contractAddress).delegatecall(\n            abi.encodeWithSignature(\"getInfo(uint256)\", 3)\n        );\n        require(success2, \"delegatecall fail\");\n        emit accountEvent(abi.decode(result2, (uint256)));\n    }\n}\n",
  "sourcePath": "/Users/chenpeng/working/own/web3/simple-sol/contracts/Account.sol",
  "compiler": {
    "name": "solc",
    "version": "0.8.19+commit.7dd6d404.Emscripten.clang"
  },
  "schemaVersion": "3.4.13",
  "updatedAt": "2023-04-11T04:21:47.377Z",
  "networkType": "ethereum",
  "devdoc": {
    "kind": "dev",
    "methods": {},
    "version": 1
  },
  "userdoc": {
    "kind": "user",
    "methods": {},
    "version": 1
  }
}