{
  "contractName": "Initialize",
  "abi": [
    {
      "inputs": [],
      "stateMutability": "payable",
      "type": "constructor"
    },
    {
      "anonymous": false,
      "inputs": [
        {
          "indexed": false,
          "internalType": "uint256",
          "name": "accountId",
          "type": "uint256"
        }
      ],
      "name": "accountEvent",
      "type": "event"
    },
    {
      "inputs": [],
      "name": "account",
      "outputs": [
        {
          "internalType": "contract Account",
          "name": "",
          "type": "address"
        }
      ],
      "stateMutability": "view",
      "type": "function"
    },
    {
      "inputs": [
        {
          "internalType": "uint256",
          "name": "accountId",
          "type": "uint256"
        }
      ],
      "name": "newAccount",
      "outputs": [],
      "stateMutability": "nonpayable",
      "type": "function"
    },
    {
      "inputs": [
        {
          "internalType": "uint256",
          "name": "accountId",
          "type": "uint256"
        },
        {
          "internalType": "uint256",
          "name": "amount",
          "type": "uint256"
        }
      ],
      "name": "newAccountWithEther",
      "outputs": [],
      "stateMutability": "payable",
      "type": "function"
    },
    {
      "inputs": [
        {
          "internalType": "address",
          "name": "addr",
          "type": "address"
        }
      ],
      "name": "getBalance",
      "outputs": [
        {
          "internalType": "uint256",
          "name": "",
          "type": "uint256"
        }
      ],
      "stateMutability": "view",
      "type": "function"
    },
    {
      "inputs": [],
      "name": "getAccountId",
      "outputs": [
        {
          "internalType": "uint256",
          "name": "",
          "type": "uint256"
        }
      ],
      "stateMutability": "view",
      "type": "function"
    },
    {
      "inputs": [],
      "name": "getThisAddr",
      "outputs": [
        {
          "internalType": "address",
          "name": "",
          "type": "address"
        }
      ],
      "stateMutability": "view",
      "type": "function"
    }
  ],
  "bytecode": "0x6080604052600a6040516100129061007d565b61001c91906100d9565b604051809103906000f080158015610038573d6000803e3d6000fd5b506000806101000a81548173ffffffffffffffffffffffffffffffffffffffff021916908373ffffffffffffffffffffffffffffffffffffffff1602179055506100f4565b61015b8061088283390190565b6000819050919050565b6000819050919050565b6000819050919050565b60006100c36100be6100b98461008a565b61009e565b610094565b9050919050565b6100d3816100a8565b82525050565b60006020820190506100ee60008301846100ca565b92915050565b61077f806101036000396000f3fe6080604052600436106100555760003560e01c80635dab24201461005a5780636d1dca0b14610085578063a699a9b6146100b0578063c39911cf146100cc578063f003abfe146100f7578063f8b2cb4f14610120575b600080fd5b34801561006657600080fd5b5061006f61015d565b60405161007c919061042a565b60405180910390f35b34801561009157600080fd5b5061009a610181565b6040516100a7919061045e565b60405180910390f35b6100ca60048036038101906100c591906104aa565b610218565b005b3480156100d857600080fd5b506100e16102c8565b6040516100ee919061050b565b60405180910390f35b34801561010357600080fd5b5061011e60048036038101906101199190610526565b6102d0565b005b34801561012c57600080fd5b506101476004803603810190610142919061057f565b61037d565b604051610154919061045e565b60405180910390f35b60008054906101000a900473ffffffffffffffffffffffffffffffffffffffff1681565b60008060009054906101000a900473ffffffffffffffffffffffffffffffffffffffff1673ffffffffffffffffffffffffffffffffffffffff166396964a226040518163ffffffff1660e01b8152600401602060405180830381865afa1580156101ef573d6000803e3d6000fd5b505050506040513d601f19601f8201168201806040525081019061021391906105c1565b905090565b80826040516102269061039e565b610230919061045e565b6040518091039082f090508015801561024d573d6000803e3d6000fd5b506000806101000a81548173ffffffffffffffffffffffffffffffffffffffff021916908373ffffffffffffffffffffffffffffffffffffffff1602179055507ff985ff11c4bb6f31dbf12ed9f397d5625b0b28aba0e5fde753950bec73b189c4826040516102bc919061045e565b60405180910390a15050565b600030905090565b806040516102dd9061039e565b6102e7919061045e565b604051809103906000f080158015610303573d6000803e3d6000fd5b506000806101000a81548173ffffffffffffffffffffffffffffffffffffffff021916908373ffffffffffffffffffffffffffffffffffffffff1602179055507ff985ff11c4bb6f31dbf12ed9f397d5625b0b28aba0e5fde753950bec73b189c481604051610372919061045e565b60405180910390a150565b60008173ffffffffffffffffffffffffffffffffffffffff16319050919050565b61015b806105ef83390190565b600073ffffffffffffffffffffffffffffffffffffffff82169050919050565b6000819050919050565b60006103f06103eb6103e6846103ab565b6103cb565b6103ab565b9050919050565b6000610402826103d5565b9050919050565b6000610414826103f7565b9050919050565b61042481610409565b82525050565b600060208201905061043f600083018461041b565b92915050565b6000819050919050565b61045881610445565b82525050565b6000602082019050610473600083018461044f565b92915050565b600080fd5b61048781610445565b811461049257600080fd5b50565b6000813590506104a48161047e565b92915050565b600080604083850312156104c1576104c0610479565b5b60006104cf85828601610495565b92505060206104e085828601610495565b9150509250929050565b60006104f5826103ab565b9050919050565b610505816104ea565b82525050565b600060208201905061052060008301846104fc565b92915050565b60006020828403121561053c5761053b610479565b5b600061054a84828501610495565b91505092915050565b61055c816104ea565b811461056757600080fd5b50565b60008135905061057981610553565b92915050565b60006020828403121561059557610594610479565b5b60006105a38482850161056a565b91505092915050565b6000815190506105bb8161047e565b92915050565b6000602082840312156105d7576105d6610479565b5b60006105e5848285016105ac565b9150509291505056fe608060405260405161015b38038061015b8339818101604052810190610025919061006d565b806000819055505061009a565b600080fd5b6000819050919050565b61004a81610037565b811461005557600080fd5b50565b60008151905061006781610041565b92915050565b60006020828403121561008357610082610032565b5b600061009184828501610058565b91505092915050565b60b3806100a86000396000f3fe6080604052348015600f57600080fd5b506004361060285760003560e01c806396964a2214602d575b600080fd5b60336047565b604051603e91906064565b60405180910390f35b60005481565b6000819050919050565b605e81604d565b82525050565b6000602082019050607760008301846057565b9291505056fea2646970667358221220b3086eea12eb3fcb869c0323c2d5194f6e7d7ede9f8e8803a9dc385aff421c8d64736f6c63430008130033a26469706673582212201403af61443eeaa362cf0084ed6d3d54405df05f83a156eeed41ff6e7da1660464736f6c63430008130033608060405260405161015b38038061015b8339818101604052810190610025919061006d565b806000819055505061009a565b600080fd5b6000819050919050565b61004a81610037565b811461005557600080fd5b50565b60008151905061006781610041565b92915050565b60006020828403121561008357610082610032565b5b600061009184828501610058565b91505092915050565b60b3806100a86000396000f3fe6080604052348015600f57600080fd5b506004361060285760003560e01c806396964a2214602d575b600080fd5b60336047565b604051603e91906064565b60405180910390f35b60005481565b6000819050919050565b605e81604d565b82525050565b6000602082019050607760008301846057565b9291505056fea2646970667358221220b3086eea12eb3fcb869c0323c2d5194f6e7d7ede9f8e8803a9dc385aff421c8d64736f6c63430008130033",
  "immutableReferences": {},
  "source": "// SPDX-License-Identifier: MIT\npragma solidity >=0.4.22 <0.9.0;\n\ncontract Account {\n    uint256 public accId;\n\n    //construction?\n    constructor(uint256 accountId) payable {\n        accId = accountId;\n    }\n}\n\ncontract Initialize {\n    constructor() payable{}\n\n    Account public account = new Account(10);\n\n    event accountEvent(uint256 accountId);\n\n    function newAccount(uint256 accountId) public {\n        account = new Account(accountId);\n        emit accountEvent(accountId);\n    }\n\n    function newAccountWithEther(uint256 accountId, uint256 amount)\n        public\n        payable\n    {\n        account = new Account{value: amount}(accountId);\n        emit accountEvent(accountId);\n    }\n\n    function getBalance(address addr) public view returns (uint256) {\n        return addr.balance;\n    }\n\n    function getAccountId() public view returns(uint256){\n        return account.accId();\n    }\n\n    function getThisAddr() public view returns(address){\n        return address(this);\n    }\n}\n",
  "sourcePath": "/Users/chenpeng/working/own/web3/simple-sol/contracts/Account.sol",
  "compiler": {
    "name": "solc",
    "version": "0.8.19+commit.7dd6d404.Emscripten.clang"
  },
  "schemaVersion": "3.4.13",
  "updatedAt": "2023-04-10T13:29:39.039Z",
  "devdoc": {
    "kind": "dev",
    "methods": {},
    "version": 1
  },
  "userdoc": {
    "kind": "user",
    "methods": {},
    "version": 1
  }
}