{
  "contractName": "Simple",
  "abi": [
    {
      "inputs": [],
      "stateMutability": "nonpayable",
      "type": "constructor"
    },
    {
      "inputs": [
        {
          "internalType": "address",
          "name": "",
          "type": "address"
        }
      ],
      "name": "balance",
      "outputs": [
        {
          "internalType": "uint256",
          "name": "",
          "type": "uint256"
        }
      ],
      "stateMutability": "view",
      "type": "function",
      "constant": true
    },
    {
      "inputs": [],
      "name": "owner",
      "outputs": [
        {
          "internalType": "address",
          "name": "",
          "type": "address"
        }
      ],
      "stateMutability": "view",
      "type": "function",
      "constant": true
    },
    {
      "inputs": [
        {
          "internalType": "address",
          "name": "receiver",
          "type": "address"
        },
        {
          "internalType": "uint256",
          "name": "number",
          "type": "uint256"
        }
      ],
      "name": "airdrop",
      "outputs": [
        {
          "internalType": "uint256",
          "name": "",
          "type": "uint256"
        }
      ],
      "stateMutability": "payable",
      "type": "function",
      "payable": true
    },
    {
      "inputs": [
        {
          "internalType": "address",
          "name": "addr",
          "type": "address"
        }
      ],
      "name": "getBalance",
      "outputs": [
        {
          "internalType": "uint256",
          "name": "",
          "type": "uint256"
        }
      ],
      "stateMutability": "view",
      "type": "function",
      "constant": true
    },
    {
      "inputs": [],
      "name": "getOwner",
      "outputs": [
        {
          "internalType": "address",
          "name": "",
          "type": "address"
        }
      ],
      "stateMutability": "view",
      "type": "function",
      "constant": true
    },
    {
      "inputs": [],
      "name": "sayHello",
      "outputs": [
        {
          "internalType": "string",
          "name": "",
          "type": "string"
        }
      ],
      "stateMutability": "pure",
      "type": "function",
      "constant": true
    }
  ],
  "bytecode": "0x608060405234801561001057600080fd5b50336000806101000a81548173ffffffffffffffffffffffffffffffffffffffff021916908373ffffffffffffffffffffffffffffffffffffffff1602179055506106d6806100606000396000f3fe6080604052600436106100555760003560e01c8063893d20e81461005a5780638ba4cc3c146100855780638da5cb5b146100b5578063e3d670d7146100e0578063ef5fb05b1461011d578063f8b2cb4f14610148575b600080fd5b34801561006657600080fd5b5061006f610185565b60405161007c91906103e0565b60405180910390f35b61009f600480360381019061009a9190610462565b6101ae565b6040516100ac91906104b1565b60405180910390f35b3480156100c157600080fd5b506100ca6102dd565b6040516100d791906103e0565b60405180910390f35b3480156100ec57600080fd5b50610107600480360381019061010291906104cc565b610301565b60405161011491906104b1565b60405180910390f35b34801561012957600080fd5b50610132610319565b60405161013f9190610589565b60405180910390f35b34801561015457600080fd5b5061016f600480360381019061016a91906104cc565b610356565b60405161017c91906104b1565b60405180910390f35b60008060009054906101000a900473ffffffffffffffffffffffffffffffffffffffff16905090565b60008060009054906101000a900473ffffffffffffffffffffffffffffffffffffffff1673ffffffffffffffffffffffffffffffffffffffff163373ffffffffffffffffffffffffffffffffffffffff161461023f576040517f08c379a00000000000000000000000000000000000000000000000000000000081526004016102369061061d565b60405180910390fd5b81600160008573ffffffffffffffffffffffffffffffffffffffff1673ffffffffffffffffffffffffffffffffffffffff168152602001908152602001600020600082825461028e919061066c565b92505081905550600160008473ffffffffffffffffffffffffffffffffffffffff1673ffffffffffffffffffffffffffffffffffffffff16815260200190815260200160002054905092915050565b60008054906101000a900473ffffffffffffffffffffffffffffffffffffffff1681565b60016020528060005260406000206000915090505481565b60606040518060400160405280600b81526020017f68656c6c6f20776f6c6421000000000000000000000000000000000000000000815250905090565b6000600160008373ffffffffffffffffffffffffffffffffffffffff1673ffffffffffffffffffffffffffffffffffffffff168152602001908152602001600020549050919050565b600073ffffffffffffffffffffffffffffffffffffffff82169050919050565b60006103ca8261039f565b9050919050565b6103da816103bf565b82525050565b60006020820190506103f560008301846103d1565b92915050565b600080fd5b610409816103bf565b811461041457600080fd5b50565b60008135905061042681610400565b92915050565b6000819050919050565b61043f8161042c565b811461044a57600080fd5b50565b60008135905061045c81610436565b92915050565b60008060408385031215610479576104786103fb565b5b600061048785828601610417565b92505060206104988582860161044d565b9150509250929050565b6104ab8161042c565b82525050565b60006020820190506104c660008301846104a2565b92915050565b6000602082840312156104e2576104e16103fb565b5b60006104f084828501610417565b91505092915050565b600081519050919050565b600082825260208201905092915050565b60005b83811015610533578082015181840152602081019050610518565b60008484015250505050565b6000601f19601f8301169050919050565b600061055b826104f9565b6105658185610504565b9350610575818560208601610515565b61057e8161053f565b840191505092915050565b600060208201905081810360008301526105a38184610550565b905092915050565b7f4f6e6c79206f776e65722063616e2063616c6c20746869732066756e6374696f60008201527f6e2e000000000000000000000000000000000000000000000000000000000000602082015250565b6000610607602283610504565b9150610612826105ab565b604082019050919050565b60006020820190508181036000830152610636816105fa565b9050919050565b7f4e487b7100000000000000000000000000000000000000000000000000000000600052601160045260246000fd5b60006106778261042c565b91506106828361042c565b925082820190508082111561069a5761069961063d565b5b9291505056fea26469706673582212209e41ae1d036ec8c3114de744c68be89780d2b9b8ce6ebeba489b5ea3a8cfdb7264736f6c63430008130033",
  "immutableReferences": {},
  "source": "// SPDX-License-Identifier: MIT\npragma solidity >=0.4.22 <0.9.0;\n\ncontract Simple {\n    address public owner;\n    mapping(address => uint256) public balance;\n\n    constructor() {\n        owner = msg.sender;\n    }\n\n    modifier onlyOwner() {\n        require(msg.sender == owner, \"Only owner can call this function.\");\n        _;\n    }\n\n    function airdrop(address receiver, uint256 number)\n        public\n        payable\n        onlyOwner\n        returns (uint256)\n    {\n        balance[receiver] += number;\n        return balance[receiver];\n    }\n\n    function getBalance(address addr) public view returns (uint256) {\n        return balance[addr];\n    }\n\n    function getOwner() public view returns (address) {\n        return owner;\n    }\n\n    function sayHello() public pure returns (string memory) {\n        return \"hello wold!\";\n    }\n}\n",
  "sourcePath": "/Users/chenpeng/working/own/web3/simple-sol/contracts/Simple.sol",
  "compiler": {
    "name": "solc",
    "version": "0.8.19+commit.7dd6d404.Emscripten.clang"
  },
  "schemaVersion": "3.4.13",
  "updatedAt": "2023-04-08T09:41:07.826Z",
  "networkType": "ethereum",
  "devdoc": {
    "kind": "dev",
    "methods": {},
    "version": 1
  },
  "userdoc": {
    "kind": "user",
    "methods": {},
    "version": 1
  }
}