{
  "contractName": "Simple",
  "abi": [
    {
      "inputs": [],
      "stateMutability": "nonpayable",
      "type": "constructor"
    },
    {
      "anonymous": false,
      "inputs": [
        {
          "indexed": false,
          "internalType": "address",
          "name": "receiver",
          "type": "address"
        },
        {
          "indexed": false,
          "internalType": "uint256",
          "name": "number",
          "type": "uint256"
        },
        {
          "indexed": false,
          "internalType": "uint256",
          "name": "balance",
          "type": "uint256"
        }
      ],
      "name": "airdropEvent",
      "type": "event"
    },
    {
      "anonymous": false,
      "inputs": [
        {
          "indexed": false,
          "internalType": "address",
          "name": "buyer",
          "type": "address"
        },
        {
          "indexed": false,
          "internalType": "uint256",
          "name": "value",
          "type": "uint256"
        },
        {
          "indexed": false,
          "internalType": "uint256",
          "name": "balance",
          "type": "uint256"
        }
      ],
      "name": "buyEvent",
      "type": "event"
    },
    {
      "anonymous": false,
      "inputs": [
        {
          "indexed": false,
          "internalType": "address",
          "name": "sender",
          "type": "address"
        },
        {
          "indexed": false,
          "internalType": "address",
          "name": "receiver",
          "type": "address"
        },
        {
          "indexed": false,
          "internalType": "uint256",
          "name": "number",
          "type": "uint256"
        },
        {
          "indexed": false,
          "internalType": "uint256",
          "name": "senderBalance",
          "type": "uint256"
        },
        {
          "indexed": false,
          "internalType": "uint256",
          "name": "receiverBalance",
          "type": "uint256"
        }
      ],
      "name": "transferEvent",
      "type": "event"
    },
    {
      "inputs": [
        {
          "internalType": "address",
          "name": "",
          "type": "address"
        }
      ],
      "name": "balances",
      "outputs": [
        {
          "internalType": "uint256",
          "name": "",
          "type": "uint256"
        }
      ],
      "stateMutability": "view",
      "type": "function",
      "constant": true
    },
    {
      "inputs": [],
      "name": "owner",
      "outputs": [
        {
          "internalType": "address",
          "name": "",
          "type": "address"
        }
      ],
      "stateMutability": "view",
      "type": "function",
      "constant": true
    },
    {
      "inputs": [
        {
          "internalType": "address",
          "name": "receiver",
          "type": "address"
        },
        {
          "internalType": "uint256",
          "name": "number",
          "type": "uint256"
        }
      ],
      "name": "airdrop",
      "outputs": [
        {
          "internalType": "uint256",
          "name": "",
          "type": "uint256"
        }
      ],
      "stateMutability": "payable",
      "type": "function",
      "payable": true
    },
    {
      "inputs": [
        {
          "internalType": "address",
          "name": "receiver",
          "type": "address"
        },
        {
          "internalType": "uint256",
          "name": "number",
          "type": "uint256"
        }
      ],
      "name": "transfer",
      "outputs": [
        {
          "internalType": "uint256",
          "name": "",
          "type": "uint256"
        }
      ],
      "stateMutability": "payable",
      "type": "function",
      "payable": true
    },
    {
      "inputs": [],
      "name": "buy",
      "outputs": [
        {
          "internalType": "uint256",
          "name": "",
          "type": "uint256"
        },
        {
          "internalType": "uint256",
          "name": "",
          "type": "uint256"
        }
      ],
      "stateMutability": "payable",
      "type": "function",
      "payable": true
    },
    {
      "inputs": [],
      "name": "sayHello",
      "outputs": [
        {
          "internalType": "string",
          "name": "",
          "type": "string"
        }
      ],
      "stateMutability": "pure",
      "type": "function",
      "constant": true
    },
    {
      "inputs": [
        {
          "internalType": "address",
          "name": "account",
          "type": "address"
        }
      ],
      "name": "getBalance",
      "outputs": [
        {
          "internalType": "uint256",
          "name": "",
          "type": "uint256"
        }
      ],
      "stateMutability": "view",
      "type": "function",
      "constant": true
    }
  ],
  "bytecode": "0x608060405234801561001057600080fd5b50336000806101000a81548173ffffffffffffffffffffffffffffffffffffffff021916908373ffffffffffffffffffffffffffffffffffffffff160217905550610ca0806100606000396000f3fe6080604052600436106100705760003560e01c8063a6f2ae3a1161004e578063a6f2ae3a1461010d578063a9059cbb1461012c578063ef5fb05b1461015c578063f8b2cb4f1461018757610070565b806327e235e3146100755780638ba4cc3c146100b25780638da5cb5b146100e2575b600080fd5b34801561008157600080fd5b5061009c600480360381019061009791906107cb565b6101c4565b6040516100a99190610811565b60405180910390f35b6100cc60048036038101906100c79190610858565b6101dc565b6040516100d99190610811565b60405180910390f35b3480156100ee57600080fd5b506100f7610346565b60405161010491906108a7565b60405180910390f35b61011561036a565b6040516101239291906108c2565b60405180910390f35b61014660048036038101906101419190610858565b6104d5565b6040516101539190610811565b60405180910390f35b34801561016857600080fd5b5061017161070a565b60405161017e919061097b565b60405180910390f35b34801561019357600080fd5b506101ae60048036038101906101a991906107cb565b610747565b6040516101bb9190610811565b60405180910390f35b60016020528060005260406000206000915090505481565b60008060009054906101000a900473ffffffffffffffffffffffffffffffffffffffff1673ffffffffffffffffffffffffffffffffffffffff163373ffffffffffffffffffffffffffffffffffffffff161461026d576040517f08c379a000000000000000000000000000000000000000000000000000000000815260040161026490610a0f565b60405180910390fd5b81600160008573ffffffffffffffffffffffffffffffffffffffff1673ffffffffffffffffffffffffffffffffffffffff16815260200190815260200160002060008282546102bc9190610a5e565b925050819055507fb02336704d4c9f0f1070c50ea26b1460ef11417392ab4cd51bff72179d87abe28383600160008773ffffffffffffffffffffffffffffffffffffffff1673ffffffffffffffffffffffffffffffffffffffff1681526020019081526020016000205460405161033593929190610a92565b60405180910390a181905092915050565b60008054906101000a900473ffffffffffffffffffffffffffffffffffffffff1681565b600080600034116103b0576040517f08c379a00000000000000000000000000000000000000000000000000000000081526004016103a790610b15565b60405180910390fd5b6064346103bd9190610b35565b600160003373ffffffffffffffffffffffffffffffffffffffff1673ffffffffffffffffffffffffffffffffffffffff168152602001908152602001600020600082825461040b9190610a5e565b925050819055507f6bdf89900030e20009704656040d32b76cc651f0042a5142ae4da1f9c105cecb3334600160003373ffffffffffffffffffffffffffffffffffffffff1673ffffffffffffffffffffffffffffffffffffffff1681526020019081526020016000205460405161048493929190610a92565b60405180910390a134600160003373ffffffffffffffffffffffffffffffffffffffff1673ffffffffffffffffffffffffffffffffffffffff16815260200190815260200160002054915091509091565b600081600160003373ffffffffffffffffffffffffffffffffffffffff1673ffffffffffffffffffffffffffffffffffffffff168152602001908152602001600020541015610559576040517f08c379a000000000000000000000000000000000000000000000000000000000815260040161055090610bc3565b60405180910390fd5b81600160003373ffffffffffffffffffffffffffffffffffffffff1673ffffffffffffffffffffffffffffffffffffffff16815260200190815260200160002060008282546105a89190610be3565b9250508190555081600160008573ffffffffffffffffffffffffffffffffffffffff1673ffffffffffffffffffffffffffffffffffffffff16815260200190815260200160002060008282546105fe9190610a5e565b925050819055507fe3c4083c7c7aca88992e9f74e9d6207fa1eb048a7a5454cd531eeb6adf2c8588338484600160003373ffffffffffffffffffffffffffffffffffffffff1673ffffffffffffffffffffffffffffffffffffffff16815260200190815260200160002054600160008973ffffffffffffffffffffffffffffffffffffffff1673ffffffffffffffffffffffffffffffffffffffff168152602001908152602001600020546040516106ba959493929190610c17565b60405180910390a1600160008473ffffffffffffffffffffffffffffffffffffffff1673ffffffffffffffffffffffffffffffffffffffff16815260200190815260200160002054905092915050565b60606040518060400160405280600b81526020017f68656c6c6f20776f6c6421000000000000000000000000000000000000000000815250905090565b60008173ffffffffffffffffffffffffffffffffffffffff16319050919050565b600080fd5b600073ffffffffffffffffffffffffffffffffffffffff82169050919050565b60006107988261076d565b9050919050565b6107a88161078d565b81146107b357600080fd5b50565b6000813590506107c58161079f565b92915050565b6000602082840312156107e1576107e0610768565b5b60006107ef848285016107b6565b91505092915050565b6000819050919050565b61080b816107f8565b82525050565b60006020820190506108266000830184610802565b92915050565b610835816107f8565b811461084057600080fd5b50565b6000813590506108528161082c565b92915050565b6000806040838503121561086f5761086e610768565b5b600061087d858286016107b6565b925050602061088e85828601610843565b9150509250929050565b6108a18161078d565b82525050565b60006020820190506108bc6000830184610898565b92915050565b60006040820190506108d76000830185610802565b6108e46020830184610802565b9392505050565b600081519050919050565b600082825260208201905092915050565b60005b8381101561092557808201518184015260208101905061090a565b60008484015250505050565b6000601f19601f8301169050919050565b600061094d826108eb565b61095781856108f6565b9350610967818560208601610907565b61097081610931565b840191505092915050565b600060208201905081810360008301526109958184610942565b905092915050565b7f4f6e6c79206f776e65722063616e2063616c6c20746869732066756e6374696f60008201527f6e2e000000000000000000000000000000000000000000000000000000000000602082015250565b60006109f96022836108f6565b9150610a048261099d565b604082019050919050565b60006020820190508181036000830152610a28816109ec565b9050919050565b7f4e487b7100000000000000000000000000000000000000000000000000000000600052601160045260246000fd5b6000610a69826107f8565b9150610a74836107f8565b9250828201905080821115610a8c57610a8b610a2f565b5b92915050565b6000606082019050610aa76000830186610898565b610ab46020830185610802565b610ac16040830184610802565b949350505050565b7f6e6f206574682076616c75652e00000000000000000000000000000000000000600082015250565b6000610aff600d836108f6565b9150610b0a82610ac9565b602082019050919050565b60006020820190508181036000830152610b2e81610af2565b9050919050565b6000610b40826107f8565b9150610b4b836107f8565b9250828202610b59816107f8565b91508282048414831517610b7057610b6f610a2f565b5b5092915050565b7f796f7520646f6e2774206861766520656e6f7567682062616c616e63652e0000600082015250565b6000610bad601e836108f6565b9150610bb882610b77565b602082019050919050565b60006020820190508181036000830152610bdc81610ba0565b9050919050565b6000610bee826107f8565b9150610bf9836107f8565b9250828203905081811115610c1157610c10610a2f565b5b92915050565b600060a082019050610c2c6000830188610898565b610c396020830187610898565b610c466040830186610802565b610c536060830185610802565b610c606080830184610802565b969550505050505056fea2646970667358221220bcc27eb302d708b7dd61e3b2852f2e989dcf215a028a9e1970c0ac8c16186eda64736f6c63430008130033",
  "immutableReferences": {},
  "source": "// SPDX-License-Identifier: MIT\npragma solidity >=0.4.22 <0.9.0;\n\ncontract Simple {\n    address public owner;\n    mapping(address => uint256) public balances;\n\n    constructor() {\n        owner = msg.sender;\n    }\n\n    modifier onlyOwner() {\n        require(msg.sender == owner, \"Only owner can call this function.\");\n        _;\n    }\n\n    event airdropEvent(address receiver, uint256 number, uint256 balance);\n    event buyEvent(address buyer, uint256 value, uint256 balance);\n    event transferEvent(\n        address sender,\n        address receiver,\n        uint256 number,\n        uint256 senderBalance,\n        uint256 receiverBalance\n    );\n\n    function airdrop(address receiver, uint256 number)\n        public\n        payable\n        onlyOwner\n        returns (uint256)\n    {\n        balances[receiver] += number;\n\n        emit airdropEvent(receiver, number, balances[receiver]);\n\n        return number;\n    }\n\n    function transfer(address receiver, uint256 number)\n        public\n        payable\n        returns (uint256)\n    {\n        require(\n            balances[msg.sender] >= number,\n            \"you don't have enough balance.\"\n        );\n\n        balances[msg.sender] -= number;\n        balances[receiver] += number;\n\n        emit transferEvent(\n            msg.sender,\n            receiver,\n            number,\n            balances[msg.sender],\n            balances[receiver]\n        );\n\n        return balances[receiver];\n    }\n\n    function buy() public payable returns (uint256, uint256) {\n        require(msg.value > 0, \"no eth value.\");\n\n        balances[msg.sender] += msg.value * 100;\n\n        emit buyEvent(msg.sender, msg.value, balances[msg.sender]);\n\n        return (msg.value, balances[msg.sender]);\n    }\n\n    function sayHello() public pure returns (string memory) {\n        return \"hello wold!\";\n    }\n\n    function getBalance(address account) public view returns (uint256) {\n        return account.balance;\n    }\n}\n",
  "sourcePath": "/Users/chenpeng/working/own/web3/simple-sol/contracts/Simple.sol",
  "compiler": {
    "name": "solc",
    "version": "0.8.19+commit.7dd6d404.Emscripten.clang"
  },
  "schemaVersion": "3.4.13",
  "updatedAt": "2023-04-11T04:21:47.200Z",
  "networkType": "ethereum",
  "devdoc": {
    "kind": "dev",
    "methods": {},
    "version": 1
  },
  "userdoc": {
    "kind": "user",
    "methods": {},
    "version": 1
  }
}